:100000000C9472020C949A020C949A020C949A0228
:100010000C949A020C949A020C949A020C949A02F0
:100020000C949A020C949A020C949A020C949A02E0
:100030000C949A020C94B60D0C949A020C949A02A9
:100040000C94140D0C949A020C94840D0C945E0D77
:100050000C949A020C949A020C949A020C949A02B0
:100060000C949A020C949A02006050644A44000076
:10007000000000C6AAA60204A85000202000D0B0AC
:10008000150A000404000D0B000000000000000031
:100090000000000000000000000000000000000060
:1000A0000000000000000000000000000000000050
:1000B0000000000000000000000000000000000040
:1000C0000000000000000000000000000000000030
:1000D0000000000000000000000000000000000020
:1000E0000000000000000000000000000000000010
:1000F0000000000000000000000000000000000000
:100100000000000000000000001C3E2A3E1C1C00F5
:100110000066660000423C00000000000000000095
:1001200000000000000000000000000000000000CF
:1001300000000000000000000000000000000000BF
:1001400000000000000000000000000000000000AF
:10015000000000000000000000000000000000009F
:10016000000000000000000000000000000000008F
:10017000000000000000000000000000000000007F
:10018000000000000000000000000000000000006F
:10019000000C0C0C0C000C00000000000000000023
:1001A000000000000000000000000000000000004F
:1001B000000000000000000000000000000000003F
:1001C000000C04040000000000000000000000001B
:1001D000000000000000000000000000000000001F
:1001E000000000000000000000000000000000000F
:1001F000000000007E7E0000000000000000606043
:100200000006060C18306060003C666E7666663C40
:10021000001818381818187E003C66060C30607EEE
:10022000003C66061C06663C000C1C2C4C7E0C0C2C
:10023000007E607C0606663C003C66607C66663C30
:10024000007E660C0C181818003C66663C66663C1E
:10025000003C66663E06663C001038101038100000
:10026000000000000000000000000000000000008E
:10027000000000000000000000000000000000007E
:10028000000000000000000000000000000000006E
:10029000003C66667E666666007C66667C66667C9A
:1002A000003C66606060663C007C66666666667CF4
:1002B000007E60607C60607E007E60607C6060606C
:1002C000003C6660606E663C006666667E666666DA
:1002D000003C18181818183C001E0C0C0C6C6C38DC
:1002E00000666C7870786C66006060606060607E4C
:1002F0000063777F6B6363630063737B6F67636324
:10030000003C66666666663C007C6666667C60608D
:10031000003C6666666E3C06007C66667C786C66B1
:10032000003C66603C06663C007E5A181818181897
:10033000006666666666663E0066666666663C18C9
:10034000006363636B7F7763006363361C366363AC
:10035000006666663C181818007E060C1830607E31
:10036000000000000000000000000000000000008D
:10037000000000000000000000000000000000007D
:10038000000000000000000000000000000000006D
:100390000000003C063E663E006060607C66667C55
:1003A0000000003C6660663C000606063E66663E4F
:1003B0000000003C667E603C001C3630307C3030F3
:1003C00000003E66663E063C006060607C666666D5
:1003D000000018001818183C000C000C0C6C6C384D
:1003E000006060666C786C66001818181818181889
:1003F00000000063777F6B6B0000007C7E666666A2
:100400000000003C6666663C00007C66667C6060BE
:1004100000003C6C6C3C0D0F0000007C6666606068
:100420000000003E403C027C000018187E1818189E
:10043000000000666666663E0000000066663C18C6
:10044000000000636B6B6B3E000000663C183C666E
:1004500000000066663E063C0000003C0C18303C84
:10046000000000000000000000000000000000008C
:10047000000000000000000000000000000000007C
:100480000000000000000000000000002400270021
:100490002A0000000000250028002B0000000000BA
:1004A00023002600290004040404040404040202B6
:1004B00002020202030303030303010204081020E3
:1004C00040800102040810200102040810200000EE
:1004D0000008000201000003040700000000000003
:1004E00000002D0F11241FBECFEFD8E0DEBFCDBF1F
:1004F00011E0A0E0B1E0EEE6F1E202C005900D925D
:10050000A03EB107D9F723E0A0EEB1E001C01D92F3
:10051000AF3BB207E1F712E0C2E7D2E004C0219797
:10052000FE010E94820FC137D107C9F70E94DD0D7D
:100530000C94B5100C940000833081F028F48130C5
:1005400099F08230A1F008958730A9F08830B9F091
:100550008430D1F4809180008F7D03C08091800031
:100560008F7780938000089584B58F7702C084B51B
:100570008F7D84BD08958091B0008F7703C08091F6
:10058000B0008F7D8093B0000895CF93DF93282F24
:1005900030E0F901E253FB4F8491F901E654FB4F3F
:1005A000D491F901EA55FB4FC491CC2391F081110C
:1005B0000E949C02EC2FF0E0EE0FFF1FE456FB4F71
:1005C000A591B491EC91ED2381E090E021F480E0DD
:1005D00002C080E090E0DF91CF9108951F93CF9308
:1005E000DF93282F30E0F901E253FB4F8491F901AA
:1005F000E654FB4FD491F901EA55FB4FC491CC234B
:10060000C1F0162F81110E949C02EC2FF0E0EE0F3A
:10061000FF1FEE56FB4FA591B4919FB7F8941111AF
:1006200004C08C91D095D82302C0EC91DE2BDC93D2
:100630009FBFDF91CF911F910895CF93DF9390E0FB
:10064000FC01E654FB4F2491FC01EA55FB4F8491D9
:10065000882361F190E0880F991FFC01E857FB4F58
:10066000C591D491FC01EE56FB4FA591B491611157
:1006700009C09FB7F8948881209582238883EC91E4
:100680002E230BC0623061F49FB7F8948881322F1B
:10069000309583238883EC912E2B2C939FBF06C02B
:1006A0008FB7F894E8812E2B28838FBFDF91CF91ED
:1006B00008953FB7F8948091B7039091B803A09143
:1006C000B903B091BA0326B5A89B05C02F3F19F016
:1006D0000196A11DB11D3FBFBA2FA92F982F8827C2
:1006E000820F911DA11DB11DBC01CD0146E0660F19
:1006F000771F881F991F4A95D1F708958F929F926F
:10070000AF92BF92CF92DF92EF92FF926B017C018A
:100710000E9459034B015C01C114D104E104F104AE
:10072000F1F00E945903DC01CB0188199909AA094B
:10073000BB09883E9340A105B10570F321E0C21AC0
:10074000D108E108F10888EE880E83E0981EA11C0C
:10075000B11CC114D104E104F10419F7DDCFFF90FD
:10076000EF90DF90CF90BF90AF909F908F900895C3
:10077000CF92DF92EF92FF920F931F93CF93DF936D
:100780006C017A018B01C0E0D0E0CE15DF0581F06D
:10079000D8016D918D01D601ED91FC910190F08110
:1007A000E02DC6010995892B11F02196EECF7E012F
:1007B000C701DF91CF911F910F91FF90EF90DF90D4
:1007C000CF900895089580E090E00895FC01538D46
:1007D000448D252F30E0842F90E0821B930B54171B
:1007E00010F0CF96089501970895FC01918D828DA8
:1007F000981761F0828DDF01A80FB11D5D968C9175
:10080000928D9F5F9F73928F90E008958FEF9FEF7F
:100810000895FC01918D828D981731F0828DE80F3B
:10082000F11D858D90E008958FEF9FEF0895FC01F5
:10083000918D228D892F90E0805C9F4F821B9109C2
:100840008F739927089589E093E00E94170421E0AF
:10085000892B09F420E0822F0895FC01848DDF01AB
:10086000A80FB11DA35ABF4F2C91848D90E0019623
:100870008F739927848FA689B7892C93A089B18912
:100880008C91837080648C93938D848D981306C0B3
:100890000288F389E02D80818F7D80830895EF9217
:1008A000FF920F931F93CF93DF93EC0181E0888F2A
:1008B0009B8D8C8D981305C0E889F989808185FD11
:1008C00026C0F62E0B8D10E00F5F1F4F0F73112700
:1008D000E02E8C8DE8120CC00FB607FCFACFE88929
:1008E000F989808185FFF5CFCE010E942D04F1CFDB
:1008F0008B8DFE01E80FF11DE35AFF4FF0829FB789
:10090000F8940B8FEA89FB89808180620AC09FB7C7
:10091000F894EE89FF896083E889F9898081837082
:10092000806480839FBF81E090E0DF91CF911F9131
:100930000F91FF90EF900895CF93DF93EC01888D96
:100940008823C9F0EA89FB89808185FD05C0A889D3
:10095000B9898C9186FD0FC00FB607FCF5CF808159
:1009600085FFF2CFA889B9898C9185FFEDCFCE01A3
:100970000E942D04E7CFDF91CF910895CF93C1E07E
:1009800089E093E00E941704892BC9F089E093E085
:100990000E94F503A091E001E1E0EA0FE093E0019D
:1009A000B0E0A851BE4F8C938D3051F7F0E0E95183
:1009B000FE4F10821092E001C093E802E1CFCF9188
:1009C00008950E94230481110C94BE04089580911F
:1009D000030390910403892BD1F50E9459032091C0
:1009E000E9023091EA02620F731FCB01880F991F51
:1009F000880F991F68277927CB01880F892F881FB7
:100A0000990B919568277927CB019695982F882780
:100A100097958795682779277093EA026093E90292
:100A20007093A7038091EB02E82FF0E0E855FC4FAC
:100A300070838F5F883018F48093EB0202C01092AD
:100A4000EB028AE090E090930403809303030895FF
:100A5000E82FF0E0E855FC4F81E090E0A0E0B0E046
:100A600004C0880F991FAA1FBB1F6A95D2F74423A1
:100A700019F02081822B03C0809590818923808387
:100A800008951F93CF93DF93C0910F01E091A703C7
:100A9000909106038091A603C13071F54E2F50E06E
:100AA000E9130DC0282F30E0BA016F5F7F4F261782
:100AB000370729F41092050391E09E0F44C027E008
:100AC00030E0291B31094217530769F4981302C01B
:100AD00091E006C0482F50E02417350721F492E03A
:100AE0009093050332C0E91330C0482F50E024171B
:100AF000350759F593E0F4CFE91305C0E81303C0B7
:100B00001092050322C06E2F70E0492F50E027E0BD
:100B100030E0241B350B6217730739F49817C1F2C4
:100B2000A82FB0E06A177B07D1F241505109641732
:100B3000750759F4482F50E02417350731F423E0A6
:100B400020930503915090930603909105039130F3
:100B500049F030F0923041F0933069F4815009C08F
:100B600081E003C08F5F05C08FEF8E0F8093A703D6
:100B700002C08093A6031091A603D091A70341E081
:100B8000C11101C040E0612F8D2F0E942805C130A6
:100B900069F4D33059F4143049F410920F011092D3
:100BA000050382E08093A703D093A60380910F01F1
:100BB000811112C08091A70381110EC08091A603FC
:100BC000873051F481E080930F01109205038FEF7D
:100BD0008093A7031092A6038AE090E09093040309
:100BE00080930303DF91CF911F9108951092060324
:100BF00081E080930F01109205038FEF8093A7038C
:100C00001092A6038091030390910403892B11F4A1
:100C10000C94410508958091030390910403892B5E
:100C200011F40C94410508953F924F925F926F9298
:100C30007F928F929F92AF92BF92CF92DF92EF926C
:100C4000FF920F931F93CF93DF935C01362E87E0C3
:100C5000582E541AC0E0D0E0042F440F110BC32CBF
:100C6000032C000CDD08432C87E0E82EF12C480112
:100C70008C0E9D1E35016C0E7D1E88E0C816D104B9
:100C800090F4E8E08E16910470F4F301449150E082
:100C90000E2C02C0559547950A94E2F74170652DD8
:100CA000842D0E942805F1E0EF1AF1088FEFC81A91
:100CB000D80A4394EFEFEE16FE06F9F621965A9401
:100CC000C830D10561F6DF91CF911F910F91FF9050
:100CD000EF90DF90CF90BF90AF909F908F907F90DC
:100CE0006F905F904F903F9008950F931F93CF9315
:100CF000DF93C0910103D0910203C80FD91F8091E7
:100D00000003882341F087E090E090930E018093E8
:100D10000D011092000300910D0110910E018881C8
:100D200028E08202C001112440E0602F88579F4FC5
:100D30000E94140617FF0CC0898128E08202C001BE
:100D4000112440E068E0600F88579F4F0E9414060E
:100D500088E290E0909304038093030388818111DB
:100D600007C0109202031092010381E080930003F8
:100D7000083F1F4F7CF48FEF9FEF90930E018093FD
:100D80000D0180910103909102030196909302035B
:100D90008093010380910D0190910E010197909332
:100DA0000E0180930D01DF91CF911F910F91089556
:100DB0008F929F92AF92BF92CF92DF92EF92FF926B
:100DC000CF93DF938AE8C82ED12CE12CF12C460179
:100DD00057018CE0880E911CA11CB11CC0E0D0E032
:100DE000C83F8FEFD80741F440E06C2F685F80E781
:100DF00090E00E94140608C040E06C2F88E690E066
:100E00000E941406209781F7C501B4010E947E0359
:100E10002197C73F8FEFD80719F7C9EF40E06C2F34
:100E200088E690E00E94140668E06C0F40E080E7DE
:100E300090E00E941406C701B6010E947E03CF5FB6
:100E400069F789E1C81AD108E108F1088DE0C816F0
:100E5000D104E104F10409F0BACFDF91CF91FF9002
:100E6000EF90DF90CF90BF90AF909F908F900895BC
:100E7000DF92EF92FF920F931F93CF93DF93CDB743
:100E8000DEB761970FB6F894DEBF0FBECDBF81E12C
:100E9000E0EBF1E0DE01119601900D928A95E1F709
:100EA0008091030390910403892B09F060C0E090C6
:100EB000E601F090E70121E030E02C0F3D1FE20E4B
:100EC000F31E80910201882341F087E090E0909327
:100ED0000101809300011092020100910001109124
:100EE0000101F701D080FD2D28E0F202C00111249C
:100EF00040E0602F88579F4F0E94140617FF0DC0D7
:100F0000F7018181F8E08F02C001112440E068E020
:100F1000600F88579F4F0E94140680E590E09093E1
:100F2000040380930303D11007C01092E7011092CD
:100F3000E60181E080930201093F1F4F7CF48FEFAF
:100F40009FEF90930101809300018091E6019091C1
:100F5000E70101969093E7018093E60180910001FB
:100F60009091010101979093010180930001619696
:100F70000FB6F894DEBF0FBECDBFDF91CF911F91AA
:100F80000F91FF90EF90DF900895CF93DF938091C2
:100F9000E501C82FD0E060E0811102C089E004C003
:100FA000FE01E358FE4F80810E94EE02C855DC4FDF
:100FB0008881809598B1907C98B998B1282F2F732B
:100FC000922B98B995B19F7C95B9807C8695869532
:100FD00095B1892B85B9C091E501EC2FF0E0E2587D
:100FE000FE4F61E080810E94EE02C73019F410923A
:100FF000E50103C0CF5FC093E5018091E401882340
:1010000011F0815023C08AE00E94C50220910A019C
:1010100030910B012330310551F4811108C089E171
:101020008093E40110920B0110920A0122C02091DA
:101030000A0130910B01232B61F481116EC081E014
:1010400090E090930B0180930A018AE08093E40181
:1010500010C020910A0130910B012130310509F4B3
:1010600051C020910A0130910B012230310509F461
:1010700052C08091E301882311F0815023C08BE09E
:101080000E94C502209107013091080123303105EB
:1010900051F4811108C089E18093E30110920801A5
:1010A0001092070120C02091070130910801232BE5
:1010B00061F4811146C081E090E090930801809333
:1010C00007018AE08093E3010EC02091070130916F
:1010D00008012130310559F12091070130910801B3
:1010E0002230310561F180910A0190910B01019745
:1010F00009F050C08091070190910801019709F013
:1011000049C029C0813009F0A0CF89E18093E40172
:1011100082E090E007C0813019F483E090E002C0E3
:1011200081E090E090930B0180930A01A2CF81307F
:1011300041F689E18093E30182E090E007C08130CD
:1011400019F483E090E002C081E090E09093080100
:1011500080930701C8CF8091E1019091E20101964F
:101160009093E2018093E101883E934019F481E07D
:101170008093B1038091030390910403892B79F04C
:10118000809103039091040301979093040380934B
:10119000030305C01092E2011092E101EBCFDF9151
:1011A000CF910895089588E0E8EAF3E0DF011D9209
:1011B0008A95E9F708958F929F92AF92BF92CF924E
:1011C000DF92EF92FF920F931F93CF93DF93CDB7F0
:1011D000DEB7C458D1090FB6F894DEBF0FBECDBF3D
:1011E0008CE1E1ECF1E0DE01A759BF4F01900D92D7
:1011F0008A95E1F78091AD0382608093AD03E12C85
:1012000003E047E3F42E17E3812C912C54018394DF
:10121000E9E6F0E0EC0FFD1FEE0DF11D908198372F
:1012200009F486C0E12FE778E7FF03C0E150E86FDB
:10123000EF5FF0E0E855FC4F812F17FF02C087E019
:10124000810F859585958595B501A40104C0440F4E
:10125000551F661F771F8A95D2F78081482B4083E0
:1012600082E18E1500F5EF2DE778E7FF03C0E1502E
:10127000E86FEF5FF0E0E855FC4F8F2DF7FE02C0FE
:1012800087E08F0D859585958595B501A40104C0EE
:10129000440F551F661F771F8A95D2F7409520810E
:1012A000842F82238083923721F4002329F1015077
:1012B00005C09C3619F4033041F00F5F0230A9F0ED
:1012C0000330D1F0013041F001C000E0812F18500F
:1012D00017FF22C018E30EC081E0810F982F97708E
:1012E00011F0182F19C0175017C0812F185F103434
:1012F0009CF018EC180F10C0912F1150812F877897
:1013000087FF03C08150886F8F5F873011F01F3FC8
:1013100011F417E0190F03E0E2E1EE1508F4FA9476
:10132000E39464E670E080E090E00E947E0370CF7A
:1013300088E6E6E1F1E0DE01119601900D928A95D2
:10134000E1F78E010F5F1F4F2DE0A22E3FEA832EA3
:1013500033E0932E98EAE92E93E0F92EF70181818C
:1013600081938E169F06D9F71092AF03680187E02C
:10137000B82E41E0F6018081811101C040E06B2D63
:1013800087E00E942805BA94FDE0CF0ED11C8FEFB4
:10139000B812EFCF66E970E080E090E00E947E0333
:1013A000AA940F5F1F4FA110D5CFF70181818193C0
:1013B0007F01FFEAEF16F3E0FF06B9F71092AF03E3
:1013C00060E971E080E090E00E947E03CC57DF4F3F
:1013D0000FB6F894DEBF0FBECDBFDF91CF911F9146
:1013E0000F91FF90EF90DF90CF90BF90AF909F90C4
:1013F0008F900C94D308CF932091F1028091F0024A
:1014000021110AC0482F50E04630510574F0409138
:1014100007015091080106C0823038F440910A015A
:1014200050910B01452B09F4E3C020910303309147
:101430000403232B09F0E6C09091EF02911142C002
:101440009091F102992311F0815001C08F5F809338
:10145000F0028091F0028830A8F1992339F0809150
:10146000EE028F5F8093EE0282E006C08091ED0273
:101470008F5F8093ED0281E08093EF0281E0892706
:101480008093F102882321F087E08093F00202C06C
:101490001092F00281E08093040184E680930301BE
:1014A0008091ED02883021F489E08093ED0207C03D
:1014B0008091EE02883031F489E08093EE0283E679
:1014C0008093EF020E94D3088091EF02813069F18E
:1014D00030F08230E1F1833609F450C079C0809158
:1014E0000401E091F002F0E0E855FC4F882319F088
:1014F0008081806102C0808188608083E091ED02FC
:10150000F0E0E855FC4F808181608083E091EE023D
:10151000F0E0E855FC4F8081806880838091030172
:1015200081508093030190E04FC0C091EC024C2F9A
:10153000417060E08091ED020E942805E091EE028A
:10154000F0E0E855FC4F80818068808311C0E09115
:10155000ED02F0E0E855FC4F808181608083C0910E
:10156000EC024C2F417067E08091EE020E9428054A
:10157000CF5FC093EC0284E690E026C08091EE023B
:1015800040E060E0893039F480E890E00E94140681
:101590001092F10207C088E790E00E94140681E0F3
:1015A0008093F1028091F102882321F087E08093FB
:1015B000F00202C01092F0021092ED021092EE02C0
:1015C0001092EF0280E293E0909304038093030370
:1015D0008091EC028630B0F01092EC028091030111
:1015E00090E090930403809303031092EF020AC0EB
:1015F00091E029272093F1022091040192279093F2
:10160000040113CFCF9108950E94A910CF92DF92C9
:10161000FF920F931F93CF93DF938091F802811174
:1016200010C083E090E00E94880F20E2FC0120833C
:10163000128211829093F7028093F60281E08093E8
:10164000F80280910C01882321F180910A01909188
:101650000B01019759F480910901811102C083E0C7
:1016600001C081508093090110920C018091070103
:1016700090910801019711F580910901833019F4C7
:101680001092090103C08F5F8093090110920C0131
:1016900015C080910A0190910B01039709F028C1B0
:1016A0008091070190910801039709F021C181E021
:1016B00080930C011092F5021092F40280910303C2
:1016C00090910403892B09F053C10091F20210910B
:1016D000F3020F5F1F4F1093F3020093F20283E0B7
:1016E00090E00E94880FEC01E091F602F091F70281
:1016F00080818883FA83E98390910901913061F0B8
:1017000028F0923081F09330B1F026C098E0980F25
:1017100090346CF088531FC091E0980F292F2770E8
:1017200031F4875018C098EF980F97FD02C0988346
:1017300013C0885C10C02FEF280F922F977897FF67
:1017400003C09150986F9F5F973021F02F3F11F0A9
:10175000288302C0895F88832881022E000C330B06
:101760008091060190E028173907D1F48091050196
:101770008F5F8093050190E0880F991F0817190764
:1017800038F0081B190B1093F3020093F20204C007
:101790001092F3021092F20284E48093060110C0CA
:1017A0008E01F80181819281FC0121813281232BFC
:1017B00011F08C01F6CF0E942010F80112821182E4
:1017C0000091F2021091F302083C110518F1F0901B
:1017D0000501F1E0FF15D0F46E01F60181819281DF
:1017E000FC0121813281232B11F06C01F6CF0E9484
:1017F0002010F60112821182FA94F09205010E5126
:1018000011091093F3020093F20204C01092F30244
:101810001092F2020E94D308809106018034D8F41D
:10182000E82FE770F0E0E855FC4F869586958695A1
:1018300041E050E060E070E08A019B0104C0000FCD
:10184000111F221F331F8A95D2F7D901C8012081A9
:10185000822B80830FC0803451F48881082E000CC5
:10186000990B4C9660E470E00E945A0F01C08150C1
:1018700080930601D093F702C093F60241E050E056
:1018800060E070E0209711F18881E82FE778E7FFAA
:1018900003C0E150E86FEF5FF0E0E855FC4F87FDD3
:1018A000895F8595859585958A019B0104C0000F08
:1018B000111F221F331F8A95D2F7D901C801208139
:1018C000822B80830980DA81C02DDCCF2091050135
:1018D00030E0215031094BEF4203C001439F900D8E
:1018E00011248C599F4F909304038093030340C0AD
:1018F00080910A0190910B01019761F48091070199
:10190000909108018130910529F49093F50280931C
:10191000F402D4CE8091F4029091F502009709F47C
:10192000CDCE60910A0170910B0140910701509159
:10193000080131E06130710509F030E021E041300B
:10194000510509F020E0321709F4B8CE01969093C2
:10195000F5028093F40288399A4309F0AFCE1092D1
:10196000F5021092F4020E94D3080E94DB08A6CE72
:10197000DF91CF911F910F91FF90DF90CF9008954D
:101980000F931F93CF93DF93CDB7DEB7DA950FB6E2
:10199000F894DEBF0FBECDBF8091E802882379F1B5
:1019A00068EE71E08E010F5F1F4FC8010E94AE10FC
:1019B000F80101900020E9F73197AF01401B510B6E
:1019C000B80189E093E00E94B80342E050E06DED79
:1019D00071E089E093E00E94B80310920203109234
:1019E000010381E08093000380910303909104033D
:1019F000892B19F4C8010E9475061092E8028091A3
:101A0000030390910403892B21F4CE0101960E94D7
:101A10007506D3950FB6F894DEBF0FBECDBFDF912C
:101A2000CF911F910F9108951F920F920FB60F92B1
:101A300011242F933F938F939F93AF93BF938091E4
:101A4000B3039091B403A091B503B091B603309164
:101A5000B20320E3230F2D3720F44096A11DB11DC2
:101A600005C023EB230F4196A11DB11D2093B203A6
:101A70008093B3039093B403A093B503B093B603DC
:101A80008091B7039091B803A091B903B091BA03C4
:101A90000196A11DB11D8093B7039093B803A09345
:101AA000B903B093BA03BF91AF919F918F913F91CA
:101AB0002F910F900FBE0F901F9018951F920F92AD
:101AC0000FB60F9211242F933F934F935F936F9311
:101AD0007F938F939F93AF93BF93EF93FF9389E08F
:101AE00093E00E942D04FF91EF91BF91AF919F91E0
:101AF0008F917F916F915F914F913F912F910F90B7
:101B00000FBE0F901F9018951F920F920FB60F9255
:101B100011242F938F939F93EF93FF93E0911903D9
:101B2000F0911A038081E0911F03F091200382FD60
:101B300012C09081809122038F5F8F7320912303C5
:101B4000821751F0E0912203F0E0E75FFC4F958FA0
:101B50008093220301C08081FF91EF919F918F912B
:101B60002F910F900FBE0F901F9018951F920F92FC
:101B70000FB60F9211242F933F934F935F936F9360
:101B80007F938F939F93AF93BF93EF93FF93E091D6
:101B90000703F09108030995FF91EF91BF91AF9171
:101BA0009F918F917F916F915F914F913F912F9175
:101BB0000F900FBE0F901F901895789484B5826097
:101BC00084BD84B5816084BD85B5826085BD85B5E1
:101BD000816085BD80916E00816080936E0010925F
:101BE00081008091810082608093810080918000DB
:101BF0008160809380008091B10084608093B10007
:101C00008091B00081608093B00080917A008B7FDA
:101C100080937A0080917A00826080937A0080912C
:101C20007A00816080937A0080917A008068809346
:101C30007A001092C10061E082E00E941D0361E021
:101C400083E00E941D0361E084E00E941D0361E0C7
:101C500085E00E941D0361E086E00E941D0361E0B3
:101C600087E00E941D0361E088E00E941D0361E09F
:101C700089E00E941D0361E08DE00E941D0361E088
:101C80008CE00E941D0361E083E10E941D0361E07E
:101C900082E10E941D0361E081E10E941D0361E079
:101CA00080E10E941D0361E08FE00E941D0361E05E
:101CB0008EE00E941D0360E082E00E94EE0260E080
:101CC00083E00E94EE0260E084E00E94EE0260E0A9
:101CD00085E00E94EE0260E086E00E94EE0260E095
:101CE00087E00E94EE0260E088E00E94EE0260E081
:101CF00089E00E94EE0261E08DE00E94EE0261E068
:101D00008CE00E94EE0261E083E10E94EE0261E05D
:101D100082E10E94EE0261E081E10E94EE0261E058
:101D200080E10E94EE0261E08FE00E94EE0261E03D
:101D30008EE00E94EE0262E08AE00E941D0362E0F3
:101D40008BE00E941D03E0911903F0911A0382E0D9
:101D50008083E0911503F09116031082E091170340
:101D6000F09118038CE0808310922103E0911D0311
:101D7000F0911E0386E08083E0911B03F0911C0329
:101D8000808180618083E0911B03F0911C0380813E
:101D900088608083E0911B03F0911C038081806840
:101DA0008083E0911B03F0911C0380818F7D8083F1
:101DB00080E1809381001092800084E294EF909300
:101DC00087008093860082E18093810088EE93E013
:101DD000909387008093860081E18093810085EC59
:101DE00097E0909308038093070381E080936F004E
:101DF000C8EAD3E018E08091B103882301F1109282
:101E0000B103FE01812F11928A95E9F71092A70381
:101E10001092A6038091B0038F5F863019F08093F3
:101E2000B00302C01092B003E091B003F0E0EE0FF7
:101E3000FF1FEC55FE4F0190F081E02D0995E091D8
:101E4000B003F0E0EE0FFF1FE856FE4F0190F08167
:101E5000E02D09950E94E104CECFE9E0F3E0138282
:101E6000128288EE93E0A0E0B0E084839583A6839D
:101E7000B7838AE891E09183808385EC90E0958731
:101E8000848784EC90E09787868780EC90E0918B44
:101E9000808B81EC90E0938B828B82EC90E0958B31
:101EA000848B86EC90E0978B868B118E128E138E2E
:101EB000148E089597FB072E16F4009407D077FD33
:101EC00009D00E946E0F07FC05D03EF490958195D5
:101ED0009F4F0895709561957F4F0895AA1BBB1B76
:101EE00051E107C0AA1FBB1FA617B70710F0A61B1A
:101EF000B70B881F991F5A95A9F780959095BC013B
:101F0000CD010895EE0FFF1F0590F491E02D099487
:101F10000F931F93CF93DF938230910510F482E0EB
:101F200090E0E091BD03F091BE0320E030E0A0E03E
:101F3000B0E0309719F14081518102811381481737
:101F40005907C8F08417950769F4109731F0129675
:101F50000C93129713961C9327C00093BD03109304
:101F6000BE0322C02115310519F04217530718F49A
:101F70009A01BD01EF01DF01F801DBCF2115310529
:101F8000F9F0281B390B2430310580F48A819B81BC
:101F90006115710521F0FB019383828304C0909346
:101FA000BE038093BD03FE01329644C0FE01E20FE2
:101FB000F31F8193919322503109398328833AC0CA
:101FC0002091BB033091BC03232B41F420911201DB
:101FD000309113013093BC032093BB032091100177
:101FE000309111012115310541F42DB73EB74091D3
:101FF000140150911501241B350BE091BB03F091A6
:10200000BC03E217F307A0F42E1B3F0B2817390778
:1020100078F0AC014E5F5F4F2417350748F04E0F44
:102020005F1F5093BC034093BB038193919302C005
:10203000E0E0F0E0CF01DF91CF911F910F91089583
:10204000CF93DF93009709F481C0FC01329713828C
:102050001282A091BD03B091BE03109781F420813C
:102060003181820F931F2091BB033091BC0328174D
:10207000390751F5F093BC03E093BB0367C0ED0152
:1020800020E030E0CE17DF0740F44A815B819E01FB
:1020900041155105F1F0EA01F5CFD383C2834081A8
:1020A0005181840F951FC817D90759F488819981E8
:1020B000840F951F0296918380838A819B819383ED
:1020C00082832115310529F4F093BE03E093BD030B
:1020D0003DC0E901FB83EA8349915991C40FD51FA3
:1020E000EC17FD0761F480819181840F951F0296A2
:1020F000E90199838883828193819B838A83E0E0CD
:10210000F0E012968D919C911397009719F0FD01C4
:10211000DC01F7CF8D919C9111979D012E5F3F4F70
:10212000820F931F2091BB033091BC0328173907FE
:1021300069F4309729F41092BE031092BD0302C0D7
:1021400013821282B093BC03A093BB03DF91CF91A3
:10215000089581E090E0F8940C94B510FB01DC0147
:0E21600001900D920020E1F70895F894FFCF52
:10216E00FFFF016401010A030001030001FFFF01EB
:10217E000000BF038000000000000000000000000F
:10218E000000000000000000010000000000000040
:10219E00000000000001000000000000000000012F
:1021AE000100010001000001010000010001000119
:1021BE000100000101010100010001000100010008
:1021CE0001000000000001010001000100010101F9
:1021DE0000000000000000000000000000000203EC
:1021EE00040506070809000000004F04B803E603C3
:1021FE009C041704F5030904C00C38070B06E7040A
:10220E00FB09060BD208D208F605D208D806DB0861
:10221E004D616368657244616163682032303138A4
:10222E00006F6F6F6F6F6F6F6C6F6C6F726F6F721F
:10223E006F6F726F6F6C6F6C6F6F6F78000D0A003F
:00000001FF
