:100000000C9461000C947E000C947E000C947E0095
:100010000C947E000C947E000C947E000C947E0068
:100020000C947E000C947E000C947E000C947E0058
:100030000C947E000C9480030C947E000C947E0043
:100040000C9436030C947E000C947E000C947E007D
:100050000C947E000C947E000C947E000C947E0028
:100060000C947E000C947E00000000002400270009
:100070002A0000000000250028002B0000000000DE
:1000800023002600290004040404040404040202DA
:100090000202020203030303030301020408102007
:1000A0004080010204081020010204081020000012
:1000B0000008000201000003040700000000000027
:1000C000000011241FBECFEFD8E0DEBFCDBF15E08A
:1000D000A0E0B1E0E6E6FCE002C005900D92AA3196
:1000E000B107D9F725E0AAE1B5E001C01D92A2341D
:1000F000B207E1F70E94A7030C9431060C940000AC
:10010000833081F028F4813099F08230A1F0089595
:100110008730A9F08830B9F08430D1F48091800024
:100120008F7D03C0809180008F7780938000089539
:1001300084B58F7702C084B58F7D84BD089580918A
:10014000B0008F7703C08091B0008F7D8093B000A6
:100150000895CF93DF93282F30E0F901E255FF4F48
:100160008491F901E656FF4FD491F901EA57FF4F08
:10017000C491CC2391F081110E948000EC2FF0E01B
:10018000EE0FFF1FE458FF4FA591B491EC91ED23C2
:1001900081E090E021F480E002C080E090E0DF9117
:1001A000CF9108951F93CF93DF93282F30E0F9016B
:1001B000E255FF4F8491F901E656FF4FD491F901C2
:1001C000EA57FF4FC491CC23C9F0162F81110E942A
:1001D0008000EC2FF0E0EE0FFF1FEE58FF4FA591CF
:1001E000B4918FB7F894111105C09C91ED2FE09553
:1001F000E92302C0EC91ED2BEC938FBFDF91CF91FF
:100200001F910895CF93DF9390E0FC01E656FF4FD6
:100210002491FC01EA57FF4F8491882361F190E01B
:10022000880F991FFC01E859FF4FC591D491FC013B
:10023000EE58FF4FA591B491611109C09FB7F89492
:100240008881209582238883EC912E230BC0623015
:1002500061F49FB7F8943881822F80958323888337
:10026000EC912E2B2C939FBF06C08FB7F894E8819A
:100270002E2B28838FBFDF91CF910895CF93DF93EB
:1002800080912105C82FD0E060E0811102C089E093
:1002900004C0FE01E95FFE4F80810E94D200C05D74
:1002A000DA4F8881809598B1907C98B998B1282FC1
:1002B0002F73922B98B995B19F7C95B9807C8695C8
:1002C000869595B1892B85B9C0912105EC2FF0E079
:1002D000E85FFE4F61E080810E94D200C73019F4D0
:1002E0001092210503C0CF5FC093210580912005A6
:1002F000882311F0815023C08AE00E94A900209138
:100300000201309103012330310551F4811108C0FD
:1003100089E180932005109203011092020122C00E
:100320002091020130910301232B61F481116EC0F1
:1003300081E090E090930301809302018AE0809332
:10034000200510C0209102013091030121303105B8
:1003500009F451C02091020130910301223031058E
:1003600009F452C080911F05882311F0815023C0E9
:100370008BE00E94A90020910001309101012330FF
:10038000310551F4811108C089E180931F05109255
:1003900001011092000120C0209100013091010163
:1003A000232B61F4811146C081E090E0909301011C
:1003B000809300018AE080931F050EC02091000108
:1003C000309101012130310559F120910001309126
:1003D00001012230310561F1809102019091030108
:1003E000019709F050C0809100019091010101979F
:1003F00009F049C029C0813009F0A0CF89E180937C
:10040000200582E090E007C0813019F483E090E09D
:1004100002C081E090E09093030180930201A2CF9B
:10042000813041F689E180931F0582E090E007C0AA
:10043000813019F483E090E002C081E090E0909375
:10044000010180930001C8CF80911D0590911E0588
:10045000019690931E0580931D058C3D954019F4DF
:1004600081E08093410580913E0590913F05892B65
:1004700079F080913E0590913F05019790933F055B
:1004800080933E0505C010921E0510921D05EBCF0E
:10049000DF91CF9108952F923F924F925F926F928A
:1004A0007F928F929F92AF92BF92CF92DF92EF9204
:1004B000FF920F931F93CF93DF9377E0741BA0E01D
:1004C000B0E0812C912C54018394C62F062E000C91
:1004D000DD0B042E000C550B07E010E075016401E4
:1004E000072E04C0CC0CDD1CEE1CFF1C0A94D2F7B6
:1004F0005C2C4C2C409420E030E06D01C40ED51EE5
:100500003C016A0E7B1EF901EC0FFD1F3897F0F4D9
:10051000E8E0CE16D104D0F4F301F080EF2DF0E046
:100520007801E21AF30A1F0102C035942794EA9475
:10053000E2F77101E62FE20FF0E0E05DFA4FF080A4
:10054000E0FE02C0F52801C0F420F0822F5F3F4F8B
:1005500028303105C1F611967150A830B10509F067
:10056000BDCFDF91CF911F910F91FF90EF90DF9062
:10057000CF90BF90AF909F908F907F906F905F9043
:100580004F903F902F9008953FB7F89480912205A7
:1005900090912305A0912405B091250526B5A89B2F
:1005A00005C02F3F19F00196A11DB11D3FBFBA2F05
:1005B000A92F982F8827820F911DA11DB11D46E0FC
:1005C000880F991FAA1FBB1F4A95D1F720911A05C2
:1005D00030911B05820F931FA11DB11D9C01220F9D
:1005E000331F220F331F822793279C01220F232FB3
:1005F000221F330B3195822793279C013695322F8A
:100600002227379527958227932790931B05809360
:100610001A050895CF930E94C402C92F90933B05F9
:100620000E94C402892F99278295869587708093AE
:10063000390580911C05E82FF0E0E05DFA4FC0839A
:100640008F5F883018F480931C0502C010921C053F
:10065000CF91089588E0E0E3F5E0DF011D928A95EF
:10066000E9F710923B051092390508951F920F92F9
:100670000FB60F9211242F933F938F939F93AF93B5
:10068000BF938091270590912805A0912905B091ED
:100690002A053091260520E3230F2D3720F44096BC
:1006A000A11DB11D05C023EB230F4196A11DB11D56
:1006B000209326058093270590932805A09329056C
:1006C000B0932A058091220590912305A0912405DD
:1006D000B09125050196A11DB11D8093220590932F
:1006E0002305A0932405B0932505BF91AF919F9159
:1006F0008F913F912F910F900FBE0F901F901895E3
:100700001F920F920FB60F9211242F933F934F9386
:100710005F936F937F938F939F93AF93BF93EF9369
:10072000FF93E0912B05F0912C050995FF91EF9136
:10073000BF91AF919F918F917F916F915F914F91F9
:100740003F912F910F900FBE0F901F9018957894A6
:1007500084B5826084BD84B5816084BD85B58260C6
:1007600085BD85B5816085BD80916E008160809377
:100770006E001092810080918100826080938100E0
:10078000809180008160809380008091B1008460BE
:100790008093B1008091B00081608093B00080911F
:1007A0007A008B7F80937A0080917A0082608093B8
:1007B0007A0080917A00816080937A0080917A003B
:1007C000806880937A001092C10061E082E00E940C
:1007D000020161E083E00E94020161E084E00E9486
:1007E000020161E085E00E94020161E086E00E9472
:1007F000020161E087E00E94020161E088E00E945E
:10080000020161E089E00E94020161E08DE00E9446
:10081000020161E08CE00E94020161E083E10E943C
:10082000020161E082E10E94020161E081E10E9437
:10083000020161E080E10E94020161E08FE00E941C
:10084000020161E08EE00E94020160E082E00E940D
:10085000D20060E083E00E94D20060E084E00E9469
:10086000D20060E085E00E94D20060E086E00E9455
:10087000D20060E087E00E94D20060E088E00E9441
:10088000D20060E089E00E94D20061E08DE00E9429
:10089000D20061E08CE00E94D20061E083E10E941E
:1008A000D20061E082E10E94D20061E081E10E9419
:1008B000D20061E080E10E94D20061E08FE00E94FE
:1008C000D20061E08EE00E94D20062E08AE00E94E5
:1008D000020162E08BE00E94020180E180938100CE
:1008E0001092800084E294EF9093870080938600BA
:1008F00082E18093810081E080932F0528EE33E030
:1009000030932E0520932D05309387002093860089
:1009100091E1909381002EE331E030932C052093F8
:100920002B0580936F00C1E0C12CD12C7601C394BC
:1009300097E0492E512C20E0222E20E0322E3AE082
:10094000632E712CD2E013E080914105882371F071
:10095000109241050E942A03809140058F5F8530E7
:1009600019F08093400502C0109240058091400527
:100970008230D9F130F4882309F400C1813041F08C
:1009800069C1833009F4FAC0843009F4FAC062C145
:1009900080913E0590913F05892B09F05BC18091C4
:1009A000390590913B05E92FF0E0E05DFA4FB70182
:1009B000A601082E04C0440F551F661F771F0A9416
:1009C000D2F72081422B40839F5F983018F4909398
:1009D0003B05CFC010923B058F5F8093390588306F
:1009E00008F4C7C00E942A03C4C080913E059091BC
:1009F0003F05892B09F02EC1309104018091390502
:100A000090913B0520913A05313069F5492F50E02E
:100A100092130CC0682F70E0FA0131966E177F07B1
:100A200029F41092380521E0290F42C0B201621B5F
:100A300071094617570769F4821303C0C09338053C
:100A400039C0682F70E064177507A1F5D093380599
:100A500031C092132FC0482F50E04617570751F569
:100A60001093380527C0921305C0891303C0109254
:100A7000380520C0692F70E0422F50E0F201E41BDE
:100A8000F50B6E177F0739F48217C1F2A82FB0E07B
:100A9000A617B707D9F2415051096417750751F4E9
:100AA000482F50E04E175F0729F410933805215066
:100AB00020933A0520913805213049F030F022305A
:100AC00041F0233061F4815008C09F5F03C08F5F05
:100AD00004C0915090933B0502C08093390520914A
:100AE000390540913B05842F90E0FC01E05DFA4F11
:100AF000332381F05081D701C601022E04C0880F34
:100B0000991FAA1FBB1F0A94D2F7852B808331300F
:100B100079F01AC0D701C60104C0880F991FAA1F17
:100B2000BB1F2A95D2F780959081892380830CC0C2
:100B3000433051F4243041F41092040110923805EE
:100B4000D0933B054093390580910401811111C078
:100B500080913B0581110DC080913905873049F4A2
:100B6000C0930401109238052FEF20933B0510929B
:100B7000390570923F0560923E056CC00E940A03E1
:100B800069C080913E0590913F05892B09F062C0B4
:100B900080913C0590913D05FC01E05FFA4F4F01CB
:100BA00080910701882341F027E030E0309306016F
:100BB0002093050110920701A0900501B090060155
:100BC000F4010081F8E00F02C001112440E06A2D19
:100BD000805F9E4F0E944B022FEFA216B2067CF45C
:100BE000F4018181882359F0F8E08F02C0011124BB
:100BF00040E067E06A0D805F9E4F0E944B0222E357
:100C000030E030933F0520933E05011106C010925D
:100C10003D0510923C05C093070139EFA3163FEF45
:100C2000B3067CF48FEF9FEF90930601809305014C
:100C300080913C0590913D05019690933D058093F0
:100C40003C05809105019091060101979093060162
:100C5000809305012114310409F476CE0E9400002E
:060C600071CEF894FFCFF5
:100C66000300030001FFFF0102030405060708094C
:100C7600000000000000000000000000000000006E
:100C8600000000000000000000000000000000005E
:100C9600000000000000000000000000000000004E
:100CA600000000000000000000000000000000003E
:100CB600000000000000000000000000000000002E
:100CC600000000000000000000000000000000001E
:100CD600000000000000000000000000000000000E
:100CE60000000000000000000000000000000000FE
:100CF60000000000000000000000000000000000EE
:100D060000000000000000000000000000000000DD
:100D160000000000000000000000000000000000CD
:100D260000000000000000000000000000000000BD
:100D360000000000000000000000000000000000AD
:100D4600000000000000000000000000000000009D
:100D5600000000000000000000000000000000008D
:100D6600000000000000000000000000000000007D
:100D7600000000000000000000000000000000006D
:100D8600000000000000000000000000000000005D
:100D9600000000000000000000000000000000004D
:100DA600000000000000000000000000000000003D
:100DB600000000000000000000000000000000002D
:100DC600000000000000000000000000000000001D
:100DD600000000000000000000000000000000000D
:100DE60000000000000000000000000000000000FD
:100DF6000000000000000000001818381818187EBF
:100E0600003C66060C30607E003C66061C06663CAE
:100E1600000C1C2C4C7E0C0C007E607C0606663C8E
:100E2600003C66607C66663C007E660C0C181818F2
:100E3600003C66663C66663C003C66663E06663C72
:100E4600003C666E7666663C00000000000000000E
:100E5600000000000000000000000000000000008C
:100E6600000000000000000000000000000000007C
:100E76000000000000000000003C66667E666666B4
:100E8600007C66667C66667C003C66606060663CEC
:100E9600007C66666666667C007E60607C60607E5E
:100EA600007E60607C606060003C6660606E663CF0
:100EB600006666667E666666003C18181818183C5A
:100EC600001E0C0C0C6C6C3800666C7870786C66C6
:100ED600006060606060607E0063777F6B63636361
:100EE6000063737B6F676363003C66666666663C99
:100EF600007C6666667C6060003C6666666E3C06E4
:100F0600007C66667C786C66003C66603C06663CE7
:100F1600007E5A1818181818006666666666663ED9
:100F26000066666666663C18006363636B7F77637C
:100F3600006363361C366363006666663C181818E1
:100F4600007E060C1830607E0000000000000000E5
:100F5600000000000000000000000000000000008B
:100F6600000000000000000000000000000000007B
:100F760000000000000000000000003C063E663E47
:100F8600006060607C66667C0000003C6660663CD3
:100F9600000606063E66663E0000003C667E603C35
:100FA600001C3630307C303000003E66663E063C23
:100FB600006060607C666666000018001818183CC1
:100FC600000C000C0C6C6C38006060666C786C660B
:100FD600001818181818181800000063777F6B6B34
:100FE6000000007C7E6666660000003C6666663C25
:100FF60000007C66667C606000003C6C6C3C0D0FFB
:101006000000007C666660600000003E403C027C9A
:10101600000018187E181818000000666666663EFE
:101026000000000066663C18000000636B6B6B3EB8
:10103600000000663C183C6600000066663E063C02
:101046000000003C0C18303C0000000000000000CE
:10105600000000000000000000000000000000008A
:10106600000000000000000000000000000000007A
:0A107600686F6C796D6F6C790000F3
:00000001FF
